{
  "contractName": "Voting",
  "abi": [
    {
      "inputs": [
        {
          "internalType": "string[]",
          "name": "candidateNames",
          "type": "string[]"
        }
      ],
      "stateMutability": "nonpayable",
      "type": "constructor"
    },
    {
      "anonymous": false,
      "inputs": [
        {
          "indexed": true,
          "internalType": "address",
          "name": "voter",
          "type": "address"
        },
        {
          "indexed": true,
          "internalType": "uint256",
          "name": "candidateId",
          "type": "uint256"
        }
      ],
      "name": "Voted",
      "type": "event"
    },
    {
      "inputs": [
        {
          "internalType": "uint256",
          "name": "",
          "type": "uint256"
        }
      ],
      "name": "candidates",
      "outputs": [
        {
          "internalType": "uint256",
          "name": "id",
          "type": "uint256"
        },
        {
          "internalType": "string",
          "name": "name",
          "type": "string"
        },
        {
          "internalType": "uint256",
          "name": "voteCount",
          "type": "uint256"
        }
      ],
      "stateMutability": "view",
      "type": "function"
    },
    {
      "inputs": [],
      "name": "owner",
      "outputs": [
        {
          "internalType": "address",
          "name": "",
          "type": "address"
        }
      ],
      "stateMutability": "view",
      "type": "function"
    },
    {
      "inputs": [
        {
          "internalType": "address",
          "name": "",
          "type": "address"
        }
      ],
      "name": "voters",
      "outputs": [
        {
          "internalType": "bool",
          "name": "",
          "type": "bool"
        }
      ],
      "stateMutability": "view",
      "type": "function"
    },
    {
      "inputs": [
        {
          "internalType": "uint256",
          "name": "candidateId",
          "type": "uint256"
        }
      ],
      "name": "vote",
      "outputs": [],
      "stateMutability": "nonpayable",
      "type": "function"
    },
    {
      "inputs": [],
      "name": "getCandidateCount",
      "outputs": [
        {
          "internalType": "uint256",
          "name": "",
          "type": "uint256"
        }
      ],
      "stateMutability": "view",
      "type": "function"
    }
  ],
  "bytecode": "0x608060405234801562000010575f80fd5b5060405162000fb938038062000fb98339818101604052810190620000369190620003a8565b335f806101000a81548173ffffffffffffffffffffffffffffffffffffffff021916908373ffffffffffffffffffffffffffffffffffffffff1602179055505f5b8151811015620001235760016040518060600160405280838152602001848481518110620000aa57620000a9620003f7565b5b602002602001015181526020015f815250908060018154018082558091505060019003905f5260205f2090600302015f909190919091505f820151815f015560208201518160010190816200010091906200065b565b5060408201518160020155505080806200011a906200076c565b91505062000077565b5050620007b8565b5f604051905090565b5f80fd5b5f80fd5b5f80fd5b5f601f19601f8301169050919050565b7f4e487b71000000000000000000000000000000000000000000000000000000005f52604160045260245ffd5b620001888262000140565b810181811067ffffffffffffffff82111715620001aa57620001a962000150565b5b80604052505050565b5f620001be6200012b565b9050620001cc82826200017d565b919050565b5f67ffffffffffffffff821115620001ee57620001ed62000150565b5b602082029050602081019050919050565b5f80fd5b5f80fd5b5f67ffffffffffffffff82111562000224576200022362000150565b5b6200022f8262000140565b9050602081019050919050565b5f5b838110156200025b5780820151818401526020810190506200023e565b5f8484015250505050565b5f6200027c620002768462000207565b620001b3565b9050828152602081018484840111156200029b576200029a62000203565b5b620002a88482856200023c565b509392505050565b5f82601f830112620002c757620002c66200013c565b5b8151620002d984826020860162000266565b91505092915050565b5f620002f8620002f284620001d1565b620001b3565b905080838252602082019050602084028301858111156200031e576200031d620001ff565b5b835b818110156200036c57805167ffffffffffffffff8111156200034757620003466200013c565b5b808601620003568982620002b0565b8552602085019450505060208101905062000320565b5050509392505050565b5f82601f8301126200038d576200038c6200013c565b5b81516200039f848260208601620002e2565b91505092915050565b5f60208284031215620003c057620003bf62000134565b5b5f82015167ffffffffffffffff811115620003e057620003df62000138565b5b620003ee8482850162000376565b91505092915050565b7f4e487b71000000000000000000000000000000000000000000000000000000005f52603260045260245ffd5b5f81519050919050565b7f4e487b71000000000000000000000000000000000000000000000000000000005f52602260045260245ffd5b5f60028204905060018216806200047357607f821691505b6020821081036200048957620004886200042e565b5b50919050565b5f819050815f5260205f209050919050565b5f6020601f8301049050919050565b5f82821b905092915050565b5f60088302620004ed7fffffffffffffffffffffffffffffffffffffffffffffffffffffffffffffffff82620004b0565b620004f98683620004b0565b95508019841693508086168417925050509392505050565b5f819050919050565b5f819050919050565b5f620005436200053d620005378462000511565b6200051a565b62000511565b9050919050565b5f819050919050565b6200055e8362000523565b620005766200056d826200054a565b848454620004bc565b825550505050565b5f90565b6200058c6200057e565b6200059981848462000553565b505050565b5b81811015620005c057620005b45f8262000582565b6001810190506200059f565b5050565b601f8211156200060f57620005d9816200048f565b620005e484620004a1565b81016020851015620005f4578190505b6200060c6200060385620004a1565b8301826200059e565b50505b505050565b5f82821c905092915050565b5f620006315f198460080262000614565b1980831691505092915050565b5f6200064b838362000620565b9150826002028217905092915050565b620006668262000424565b67ffffffffffffffff81111562000682576200068162000150565b5b6200068e82546200045b565b6200069b828285620005c4565b5f60209050601f831160018114620006d1575f8415620006bc578287015190505b620006c885826200063e565b86555062000737565b601f198416620006e1866200048f565b5f5b828110156200070a57848901518255600182019150602085019450602081019050620006e3565b868310156200072a578489015162000726601f89168262000620565b8355505b6001600288020188555050505b505050505050565b7f4e487b71000000000000000000000000000000000000000000000000000000005f52601160045260245ffd5b5f620007788262000511565b91507fffffffffffffffffffffffffffffffffffffffffffffffffffffffffffffffff8203620007ad57620007ac6200073f565b5b600182019050919050565b6107f380620007c65f395ff3fe608060405234801561000f575f80fd5b5060043610610055575f3560e01c80630121b93f1461005957806330a56347146100755780633477ee2e146100935780638da5cb5b146100c5578063a3ec138d146100e3575b5f80fd5b610073600480360381019061006e91906103f6565b610113565b005b61007d6102b8565b60405161008a9190610430565b60405180910390f35b6100ad60048036038101906100a891906103f6565b6102c4565b6040516100bc939291906104d3565b60405180910390f35b6100cd61037f565b6040516100da919061054e565b60405180910390f35b6100fd60048036038101906100f89190610591565b6103a2565b60405161010a91906105d6565b60405180910390f35b60025f3373ffffffffffffffffffffffffffffffffffffffff1673ffffffffffffffffffffffffffffffffffffffff1681526020019081526020015f205f9054906101000a900460ff161561019d576040517f08c379a000000000000000000000000000000000000000000000000000000000815260040161019490610639565b60405180910390fd5b60018054905081106101e4576040517f08c379a00000000000000000000000000000000000000000000000000000000081526004016101db906106a1565b60405180910390fd5b600160025f3373ffffffffffffffffffffffffffffffffffffffff1673ffffffffffffffffffffffffffffffffffffffff1681526020019081526020015f205f6101000a81548160ff0219169083151502179055506001818154811061024d5761024c6106bf565b5b905f5260205f2090600302016002015f81548092919061026c90610719565b9190505550803373ffffffffffffffffffffffffffffffffffffffff167f4d99b957a2bc29a30ebd96a7be8e68fe50a3c701db28a91436490b7d53870ca460405160405180910390a350565b5f600180549050905090565b600181815481106102d3575f80fd5b905f5260205f2090600302015f91509050805f0154908060010180546102f89061078d565b80601f01602080910402602001604051908101604052809291908181526020018280546103249061078d565b801561036f5780601f106103465761010080835404028352916020019161036f565b820191905f5260205f20905b81548152906001019060200180831161035257829003601f168201915b5050505050908060020154905083565b5f8054906101000a900473ffffffffffffffffffffffffffffffffffffffff1681565b6002602052805f5260405f205f915054906101000a900460ff1681565b5f80fd5b5f819050919050565b6103d5816103c3565b81146103df575f80fd5b50565b5f813590506103f0816103cc565b92915050565b5f6020828403121561040b5761040a6103bf565b5b5f610418848285016103e2565b91505092915050565b61042a816103c3565b82525050565b5f6020820190506104435f830184610421565b92915050565b5f81519050919050565b5f82825260208201905092915050565b5f5b83811015610480578082015181840152602081019050610465565b5f8484015250505050565b5f601f19601f8301169050919050565b5f6104a582610449565b6104af8185610453565b93506104bf818560208601610463565b6104c88161048b565b840191505092915050565b5f6060820190506104e65f830186610421565b81810360208301526104f8818561049b565b90506105076040830184610421565b949350505050565b5f73ffffffffffffffffffffffffffffffffffffffff82169050919050565b5f6105388261050f565b9050919050565b6105488161052e565b82525050565b5f6020820190506105615f83018461053f565b92915050565b6105708161052e565b811461057a575f80fd5b50565b5f8135905061058b81610567565b92915050565b5f602082840312156105a6576105a56103bf565b5b5f6105b38482850161057d565b91505092915050565b5f8115159050919050565b6105d0816105bc565b82525050565b5f6020820190506105e95f8301846105c7565b92915050565b7f596f75206861766520616c726561647920766f746564000000000000000000005f82015250565b5f610623601683610453565b915061062e826105ef565b602082019050919050565b5f6020820190508181035f83015261065081610617565b9050919050565b7f496e76616c69642063616e6469646174650000000000000000000000000000005f82015250565b5f61068b601183610453565b915061069682610657565b602082019050919050565b5f6020820190508181035f8301526106b88161067f565b9050919050565b7f4e487b71000000000000000000000000000000000000000000000000000000005f52603260045260245ffd5b7f4e487b71000000000000000000000000000000000000000000000000000000005f52601160045260245ffd5b5f610723826103c3565b91507fffffffffffffffffffffffffffffffffffffffffffffffffffffffffffffffff8203610755576107546106ec565b5b600182019050919050565b7f4e487b71000000000000000000000000000000000000000000000000000000005f52602260045260245ffd5b5f60028204905060018216806107a457607f821691505b6020821081036107b7576107b6610760565b5b5091905056fea2646970667358221220fedd059bc6f7e98812bcd523ae419b28606ea4c1cda77470477b79edfeeb311c64736f6c63430008150033",
  "immutableReferences": {},
  "source": "// SPDX-License-Identifier: MIT\r\npragma solidity ^0.8.0;\r\n\r\ncontract Voting {\r\n    // Structure to represent a candidate\r\n    struct Candidate {\r\n        uint id;\r\n        string name;\r\n        uint voteCount;\r\n    }\r\n\r\n    // Store the contract creator's address\r\n    address public owner;\r\n\r\n    // Store a list of candidates\r\n    Candidate[] public candidates;\r\n\r\n    // Store a mapping of voter addresses to their votes\r\n    mapping(address => bool) public voters;\r\n\r\n    // Event to log vote casting\r\n    event Voted(address indexed voter, uint indexed candidateId);\r\n\r\n    // Modifier to restrict access to the contract owner\r\n    modifier onlyOwner() {\r\n        require(msg.sender == owner, \"Only the owner can perform this action\");\r\n        _;\r\n    }\r\n\r\n    // Constructor to initialize the contract\r\n    constructor(string[] memory candidateNames) {\r\n        owner = msg.sender;\r\n\r\n        // Add candidates to the contract\r\n        for (uint i = 0; i < candidateNames.length; i++) {\r\n            candidates.push(Candidate({\r\n                id: i,\r\n                name: candidateNames[i],\r\n                voteCount: 0\r\n            }));\r\n        }\r\n    }\r\n\r\n    // Function to cast a vote for a candidate\r\n    function vote(uint candidateId) public {\r\n        // Check if the sender has not voted before\r\n        require(!voters[msg.sender], \"You have already voted\");\r\n        // Check if the candidate exists\r\n        require(candidateId < candidates.length, \"Invalid candidate\");\r\n\r\n        // Record the voter's choice\r\n        voters[msg.sender] = true;\r\n        // Increment the candidate's vote count\r\n        candidates[candidateId].voteCount++;\r\n\r\n        // Emit the Voted event\r\n        emit Voted(msg.sender, candidateId);\r\n    }\r\n\r\n    // Function to get the total number of candidates\r\n    function getCandidateCount() public view returns (uint) {\r\n        return candidates.length;\r\n    }\r\n}\r\n",
  "sourcePath": "C:\\Users\\wirel\\GitHub\\VotingSystem\\voting-dapp\\contracts\\Voting.sol",
  "compiler": {
    "name": "solc",
    "version": "0.8.21+commit.d9974bed.Emscripten.clang"
  },
  "schemaVersion": "3.4.16",
  "updatedAt": "2023-09-09T07:17:36.038Z",
  "devdoc": {
    "kind": "dev",
    "methods": {},
    "version": 1
  },
  "userdoc": {
    "kind": "user",
    "methods": {},
    "version": 1
  }
}